{
  "_format": "hh-sol-artifact-1",
  "contractName": "UserProfile",
  "sourceName": "contracts/UserProfile.sol",
  "abi": [
    {
      "anonymous": false,
      "inputs": [
        {
          "indexed": true,
          "internalType": "address",
          "name": "userAddress",
          "type": "address"
        },
        {
          "indexed": false,
          "internalType": "uint256",
          "name": "newExpirationTime",
          "type": "uint256"
        }
      ],
      "name": "PremiumStatusUpdated",
      "type": "event"
    },
    {
      "anonymous": false,
      "inputs": [
        {
          "indexed": true,
          "internalType": "address",
          "name": "userAddress",
          "type": "address"
        }
      ],
      "name": "ProfileCreated",
      "type": "event"
    },
    {
      "inputs": [],
      "name": "becomePremium",
      "outputs": [],
      "stateMutability": "payable",
      "type": "function"
    },
    {
      "inputs": [
        {
          "internalType": "string",
          "name": "_name",
          "type": "string"
        },
        {
          "internalType": "string",
          "name": "_bio",
          "type": "string"
        },
        {
          "internalType": "string",
          "name": "_imageIpfsHash",
          "type": "string"
        },
        {
          "internalType": "string",
          "name": "_hobby",
          "type": "string"
        },
        {
          "internalType": "uint8",
          "name": "_age",
          "type": "uint8"
        }
      ],
      "name": "createOrUpdateProfile",
      "outputs": [],
      "stateMutability": "nonpayable",
      "type": "function"
    },
    {
      "inputs": [
        {
          "internalType": "uint256",
          "name": "_index",
          "type": "uint256"
        }
      ],
      "name": "getUserAddressByIndex",
      "outputs": [
        {
          "internalType": "address",
          "name": "",
          "type": "address"
        }
      ],
      "stateMutability": "view",
      "type": "function"
    },
    {
      "inputs": [],
      "name": "getUserCount",
      "outputs": [
        {
          "internalType": "uint256",
          "name": "",
          "type": "uint256"
        }
      ],
      "stateMutability": "view",
      "type": "function"
    },
    {
      "inputs": [
        {
          "internalType": "address",
          "name": "",
          "type": "address"
        }
      ],
      "name": "premiumExpiration",
      "outputs": [
        {
          "internalType": "uint256",
          "name": "",
          "type": "uint256"
        }
      ],
      "stateMutability": "view",
      "type": "function"
    },
    {
      "inputs": [
        {
          "internalType": "address",
          "name": "",
          "type": "address"
        }
      ],
      "name": "profiles",
      "outputs": [
        {
          "internalType": "string",
          "name": "name",
          "type": "string"
        },
        {
          "internalType": "string",
          "name": "bio",
          "type": "string"
        },
        {
          "internalType": "string",
          "name": "imageIpfsHash",
          "type": "string"
        },
        {
          "internalType": "string",
          "name": "hobby",
          "type": "string"
        },
        {
          "internalType": "uint8",
          "name": "age",
          "type": "uint8"
        },
        {
          "internalType": "uint256",
          "name": "createdAt",
          "type": "uint256"
        }
      ],
      "stateMutability": "view",
      "type": "function"
    },
    {
      "inputs": [
        {
          "internalType": "uint256",
          "name": "",
          "type": "uint256"
        }
      ],
      "name": "userList",
      "outputs": [
        {
          "internalType": "address",
          "name": "",
          "type": "address"
        }
      ],
      "stateMutability": "view",
      "type": "function"
    }
  ],
  "bytecode": "0x608060405234801561001057600080fd5b5061128f806100206000396000f3fe6080604052600436106100705760003560e01c80639f4216e81161004e5780639f4216e8146100e5578063b5cb15f714610122578063bbe156271461014d578063cca76c5d1461018f57610070565b806305dee5e214610075578063337ba4d91461009e578063904de425146100a8575b600080fd5b34801561008157600080fd5b5061009c60048036038101906100979190610a62565b6101cc565b005b6100a66104cb565b005b3480156100b457600080fd5b506100cf60048036038101906100ca9190610bbc565b61065e565b6040516100dc9190610c02565b60405180910390f35b3480156100f157600080fd5b5061010c60048036038101906101079190610c49565b610676565b6040516101199190610c85565b60405180910390f35b34801561012e57600080fd5b506101376106b5565b6040516101449190610c02565b60405180910390f35b34801561015957600080fd5b50610174600480360381019061016f9190610bbc565b6106c2565b60405161018696959493929190610d3f565b60405180910390f35b34801561019b57600080fd5b506101b660048036038101906101b19190610c49565b61092b565b6040516101c39190610c85565b60405180910390f35b60008060003373ffffffffffffffffffffffffffffffffffffffff1673ffffffffffffffffffffffffffffffffffffffff1681526020019081526020016000206005015403610279576001339080600181540180825580915050600190039060005260206000200160009091909190916101000a81548173ffffffffffffffffffffffffffffffffffffffff021916908373ffffffffffffffffffffffffffffffffffffffff1602179055505b6040518060c001604052808a8a8080601f016020809104026020016040519081016040528093929190818152602001838380828437600081840152601f19601f82011690508083019250505050505050815260200188888080601f016020809104026020016040519081016040528093929190818152602001838380828437600081840152601f19601f82011690508083019250505050505050815260200186868080601f016020809104026020016040519081016040528093929190818152602001838380828437600081840152601f19601f82011690508083019250505050505050815260200184848080601f016020809104026020016040519081016040528093929190818152602001838380828437600081840152601f19601f8201169050808301925050505050505081526020018260ff168152602001428152506000803373ffffffffffffffffffffffffffffffffffffffff1673ffffffffffffffffffffffffffffffffffffffff168152602001908152602001600020600082015181600001908161040c9190610ff7565b5060208201518160010190816104229190610ff7565b5060408201518160020190816104389190610ff7565b50606082015181600301908161044e9190610ff7565b5060808201518160040160006101000a81548160ff021916908360ff16021790555060a082015181600501559050503373ffffffffffffffffffffffffffffffffffffffff167ff10ec97e920cde75887622583772c637595a40b1f7777c18e51ea36cd127475c60405160405180910390a2505050505050505050565b60006702c68af0bb140000905080341461051a576040517f08c379a00000000000000000000000000000000000000000000000000000000081526004016105119061113b565b60405180910390fd5b600062278d00905060008142610530919061118a565b905042600260003373ffffffffffffffffffffffffffffffffffffffff1673ffffffffffffffffffffffffffffffffffffffff1681526020019081526020016000205411156105c75781600260003373ffffffffffffffffffffffffffffffffffffffff1673ffffffffffffffffffffffffffffffffffffffff168152602001908152602001600020546105c4919061118a565b90505b80600260003373ffffffffffffffffffffffffffffffffffffffff1673ffffffffffffffffffffffffffffffffffffffff168152602001908152602001600020819055503373ffffffffffffffffffffffffffffffffffffffff167f54e9d3c8aa559c7058f0ec85f7f663a25e30e96fcf240583e32ac4fce0c53e6e826040516106519190610c02565b60405180910390a2505050565b60026020528060005260406000206000915090505481565b6001818154811061068657600080fd5b906000526020600020016000915054906101000a900473ffffffffffffffffffffffffffffffffffffffff1681565b6000600180549050905090565b60006020528060005260406000206000915090508060000180546106e590610e1a565b80601f016020809104026020016040519081016040528092919081815260200182805461071190610e1a565b801561075e5780601f106107335761010080835404028352916020019161075e565b820191906000526020600020905b81548152906001019060200180831161074157829003601f168201915b50505050509080600101805461077390610e1a565b80601f016020809104026020016040519081016040528092919081815260200182805461079f90610e1a565b80156107ec5780601f106107c1576101008083540402835291602001916107ec565b820191906000526020600020905b8154815290600101906020018083116107cf57829003601f168201915b50505050509080600201805461080190610e1a565b80601f016020809104026020016040519081016040528092919081815260200182805461082d90610e1a565b801561087a5780601f1061084f5761010080835404028352916020019161087a565b820191906000526020600020905b81548152906001019060200180831161085d57829003601f168201915b50505050509080600301805461088f90610e1a565b80601f01602080910402602001604051908101604052809291908181526020018280546108bb90610e1a565b80156109085780601f106108dd57610100808354040283529160200191610908565b820191906000526020600020905b8154815290600101906020018083116108eb57829003601f168201915b5050505050908060040160009054906101000a900460ff16908060050154905086565b60006001805490508210610974576040517f08c379a000000000000000000000000000000000000000000000000000000000815260040161096b9061120a565b60405180910390fd5b600182815481106109885761098761122a565b5b9060005260206000200160009054906101000a900473ffffffffffffffffffffffffffffffffffffffff169050919050565b600080fd5b600080fd5b600080fd5b600080fd5b600080fd5b60008083601f8401126109e9576109e86109c4565b5b8235905067ffffffffffffffff811115610a0657610a056109c9565b5b602083019150836001820283011115610a2257610a216109ce565b5b9250929050565b600060ff82169050919050565b610a3f81610a29565b8114610a4a57600080fd5b50565b600081359050610a5c81610a36565b92915050565b600080600080600080600080600060a08a8c031215610a8457610a836109ba565b5b60008a013567ffffffffffffffff811115610aa257610aa16109bf565b5b610aae8c828d016109d3565b995099505060208a013567ffffffffffffffff811115610ad157610ad06109bf565b5b610add8c828d016109d3565b975097505060408a013567ffffffffffffffff811115610b0057610aff6109bf565b5b610b0c8c828d016109d3565b955095505060608a013567ffffffffffffffff811115610b2f57610b2e6109bf565b5b610b3b8c828d016109d3565b93509350506080610b4e8c828d01610a4d565b9150509295985092959850929598565b600073ffffffffffffffffffffffffffffffffffffffff82169050919050565b6000610b8982610b5e565b9050919050565b610b9981610b7e565b8114610ba457600080fd5b50565b600081359050610bb681610b90565b92915050565b600060208284031215610bd257610bd16109ba565b5b6000610be084828501610ba7565b91505092915050565b6000819050919050565b610bfc81610be9565b82525050565b6000602082019050610c176000830184610bf3565b92915050565b610c2681610be9565b8114610c3157600080fd5b50565b600081359050610c4381610c1d565b92915050565b600060208284031215610c5f57610c5e6109ba565b5b6000610c6d84828501610c34565b91505092915050565b610c7f81610b7e565b82525050565b6000602082019050610c9a6000830184610c76565b92915050565b600081519050919050565b600082825260208201905092915050565b60005b83811015610cda578082015181840152602081019050610cbf565b60008484015250505050565b6000601f19601f8301169050919050565b6000610d0282610ca0565b610d0c8185610cab565b9350610d1c818560208601610cbc565b610d2581610ce6565b840191505092915050565b610d3981610a29565b82525050565b600060c0820190508181036000830152610d598189610cf7565b90508181036020830152610d6d8188610cf7565b90508181036040830152610d818187610cf7565b90508181036060830152610d958186610cf7565b9050610da46080830185610d30565b610db160a0830184610bf3565b979650505050505050565b7f4e487b7100000000000000000000000000000000000000000000000000000000600052604160045260246000fd5b7f4e487b7100000000000000000000000000000000000000000000000000000000600052602260045260246000fd5b60006002820490506001821680610e3257607f821691505b602082108103610e4557610e44610deb565b5b50919050565b60008190508160005260206000209050919050565b60006020601f8301049050919050565b600082821b905092915050565b600060088302610ead7fffffffffffffffffffffffffffffffffffffffffffffffffffffffffffffffff82610e70565b610eb78683610e70565b95508019841693508086168417925050509392505050565b6000819050919050565b6000610ef4610eef610eea84610be9565b610ecf565b610be9565b9050919050565b6000819050919050565b610f0e83610ed9565b610f22610f1a82610efb565b848454610e7d565b825550505050565b600090565b610f37610f2a565b610f42818484610f05565b505050565b5b81811015610f6657610f5b600082610f2f565b600181019050610f48565b5050565b601f821115610fab57610f7c81610e4b565b610f8584610e60565b81016020851015610f94578190505b610fa8610fa085610e60565b830182610f47565b50505b505050565b600082821c905092915050565b6000610fce60001984600802610fb0565b1980831691505092915050565b6000610fe78383610fbd565b9150826002028217905092915050565b61100082610ca0565b67ffffffffffffffff81111561101957611018610dbc565b5b6110238254610e1a565b61102e828285610f6a565b600060209050601f831160018114611061576000841561104f578287015190505b6110598582610fdb565b8655506110c1565b601f19841661106f86610e4b565b60005b8281101561109757848901518255600182019150602085019450602081019050611072565b868310156110b457848901516110b0601f891682610fbd565b8355505b6001600288020188555050505b505050505050565b7f466565206d7573742062652065786163746c7920302e32204156415820666f7260008201527f2061206d6f6e74686c79207072656d69756d2e00000000000000000000000000602082015250565b6000611125603383610cab565b9150611130826110c9565b604082019050919050565b6000602082019050818103600083015261115481611118565b9050919050565b7f4e487b7100000000000000000000000000000000000000000000000000000000600052601160045260246000fd5b600061119582610be9565b91506111a083610be9565b92508282019050808211156111b8576111b761115b565b5b92915050565b7f496e646578206f7574206f6620626f756e647300000000000000000000000000600082015250565b60006111f4601383610cab565b91506111ff826111be565b602082019050919050565b60006020820190508181036000830152611223816111e7565b9050919050565b7f4e487b7100000000000000000000000000000000000000000000000000000000600052603260045260246000fdfea2646970667358221220d1d2cf2507167ac45396b91bac4b77d3781881ab6c47317255f72fc08efe40c564736f6c63430008140033",
  "linkReferences": {},
  "deployedLinkReferences": {}
}